{
  "contractName": "bcs",
  "abi": [
    {
      "inputs": [],
      "name": "beneficiary",
      "outputs": [
        {
          "internalType": "address",
          "name": "",
          "type": "address"
        }
      ],
      "stateMutability": "view",
      "type": "function",
      "constant": true
    },
    {
      "inputs": [
        {
          "internalType": "address",
          "name": "",
          "type": "address"
        }
      ],
      "name": "donors",
      "outputs": [
        {
          "internalType": "uint256",
          "name": "",
          "type": "uint256"
        }
      ],
      "stateMutability": "view",
      "type": "function",
      "constant": true
    },
    {
      "inputs": [],
      "name": "minimumContribution",
      "outputs": [
        {
          "internalType": "uint256",
          "name": "",
          "type": "uint256"
        }
      ],
      "stateMutability": "view",
      "type": "function",
      "constant": true
    },
    {
      "inputs": [],
      "name": "noOfdonors",
      "outputs": [
        {
          "internalType": "uint256",
          "name": "",
          "type": "uint256"
        }
      ],
      "stateMutability": "view",
      "type": "function",
      "constant": true
    },
    {
      "inputs": [],
      "name": "numRequests",
      "outputs": [
        {
          "internalType": "uint256",
          "name": "",
          "type": "uint256"
        }
      ],
      "stateMutability": "view",
      "type": "function",
      "constant": true
    },
    {
      "inputs": [],
      "name": "numofregisteredTender",
      "outputs": [
        {
          "internalType": "uint256",
          "name": "",
          "type": "uint256"
        }
      ],
      "stateMutability": "view",
      "type": "function",
      "constant": true
    },
    {
      "inputs": [],
      "name": "raisedAmount",
      "outputs": [
        {
          "internalType": "uint256",
          "name": "",
          "type": "uint256"
        }
      ],
      "stateMutability": "view",
      "type": "function",
      "constant": true
    },
    {
      "inputs": [
        {
          "internalType": "uint256",
          "name": "",
          "type": "uint256"
        }
      ],
      "name": "requests",
      "outputs": [
        {
          "internalType": "string",
          "name": "description",
          "type": "string"
        },
        {
          "internalType": "uint256",
          "name": "value",
          "type": "uint256"
        },
        {
          "internalType": "bool",
          "name": "completed",
          "type": "bool"
        },
        {
          "internalType": "uint256",
          "name": "noOfVoters",
          "type": "uint256"
        },
        {
          "internalType": "address payable",
          "name": "recipient",
          "type": "address"
        }
      ],
      "stateMutability": "view",
      "type": "function",
      "constant": true
    },
    {
      "inputs": [],
      "name": "target",
      "outputs": [
        {
          "internalType": "uint256",
          "name": "",
          "type": "uint256"
        }
      ],
      "stateMutability": "view",
      "type": "function",
      "constant": true
    },
    {
      "inputs": [],
      "name": "url",
      "outputs": [
        {
          "internalType": "string",
          "name": "",
          "type": "string"
        }
      ],
      "stateMutability": "view",
      "type": "function",
      "constant": true
    },
    {
      "inputs": [
        {
          "internalType": "uint256",
          "name": "_target",
          "type": "uint256"
        },
        {
          "internalType": "uint256",
          "name": "_minimum",
          "type": "uint256"
        },
        {
          "internalType": "string",
          "name": "_url",
          "type": "string"
        }
      ],
      "name": "registerTender",
      "outputs": [],
      "stateMutability": "payable",
      "type": "function",
      "payable": true
    },
    {
      "inputs": [],
      "name": "getreqNo",
      "outputs": [
        {
          "internalType": "uint256",
          "name": "",
          "type": "uint256"
        }
      ],
      "stateMutability": "view",
      "type": "function",
      "constant": true
    },
    {
      "inputs": [],
      "name": "donate",
      "outputs": [],
      "stateMutability": "payable",
      "type": "function",
      "payable": true
    },
    {
      "inputs": [
        {
          "internalType": "string",
          "name": "_description",
          "type": "string"
        },
        {
          "internalType": "address payable",
          "name": "_recipient",
          "type": "address"
        },
        {
          "internalType": "uint256",
          "name": "_value",
          "type": "uint256"
        }
      ],
      "name": "createRequests",
      "outputs": [],
      "stateMutability": "payable",
      "type": "function",
      "payable": true
    },
    {
      "inputs": [
        {
          "internalType": "uint256",
          "name": "_requestNo",
          "type": "uint256"
        }
      ],
      "name": "voteRequest",
      "outputs": [],
      "stateMutability": "nonpayable",
      "type": "function"
    },
    {
      "inputs": [
        {
          "internalType": "uint256",
          "name": "_requestNo",
          "type": "uint256"
        }
      ],
      "name": "settleRequest",
      "outputs": [],
      "stateMutability": "nonpayable",
      "type": "function"
    },
    {
      "inputs": [],
      "name": "getTenderinfo",
      "outputs": [
        {
          "internalType": "uint256",
          "name": "",
          "type": "uint256"
        },
        {
          "internalType": "uint256",
          "name": "",
          "type": "uint256"
        },
        {
          "internalType": "string",
          "name": "",
          "type": "string"
        },
        {
          "internalType": "uint256",
          "name": "",
          "type": "uint256"
        },
        {
          "internalType": "address",
          "name": "",
          "type": "address"
        },
        {
          "internalType": "uint256",
          "name": "",
          "type": "uint256"
        },
        {
          "internalType": "uint256",
          "name": "",
          "type": "uint256"
        },
        {
          "internalType": "uint256",
          "name": "",
          "type": "uint256"
        }
      ],
      "stateMutability": "view",
      "type": "function",
      "constant": true
    },
    {
      "inputs": [
        {
          "internalType": "uint256",
          "name": "_i",
          "type": "uint256"
        }
      ],
      "name": "getRequeststatus",
      "outputs": [
        {
          "internalType": "bool",
          "name": "",
          "type": "bool"
        },
        {
          "internalType": "uint256",
          "name": "",
          "type": "uint256"
        },
        {
          "internalType": "address",
          "name": "",
          "type": "address"
        },
        {
          "internalType": "uint256",
          "name": "",
          "type": "uint256"
        },
        {
          "internalType": "uint256",
          "name": "",
          "type": "uint256"
        },
        {
          "internalType": "string",
          "name": "",
          "type": "string"
        },
        {
          "internalType": "address",
          "name": "",
          "type": "address"
        },
        {
          "internalType": "uint256",
          "name": "",
          "type": "uint256"
        }
      ],
      "stateMutability": "view",
      "type": "function",
      "constant": true
    }
  ],
  "bytecode": "0x608060405234801561001057600080fd5b50611d6f806100206000396000f3fe6080604052600436106101095760003560e01c8063937e09b111610095578063c59ee1dc11610064578063c59ee1dc14610353578063ca0cdea81461037e578063d247f92b146103bb578063d4b83992146103e4578063ed88c68e1461040f57610109565b8063937e09b1146102a75780639fb42b1f146102d2578063aaf09c4e146102fd578063bc9191091461032857610109565b80635600f04f116100dc5780635600f04f146101a957806381d12c58146101d45780638b84590d146102155780638faf755114610259578063928a13971461027557610109565b806335b7f7831461010e57806338af3eed146101395780633eb7647b146101645780634cb6f4a514610180575b600080fd5b34801561011a57600080fd5b50610123610419565b6040516101309190611129565b60405180910390f35b34801561014557600080fd5b5061014e61041f565b60405161015b9190611185565b60405180910390f35b61017e60048036038101906101799190611364565b610445565b005b34801561018c57600080fd5b506101a760048036038101906101a291906113d3565b610598565b005b3480156101b557600080fd5b506101be6107be565b6040516101cb9190611488565b60405180910390f35b3480156101e057600080fd5b506101fb60048036038101906101f691906113d3565b61084c565b60405161020c9594939291906114d4565b60405180910390f35b34801561022157600080fd5b5061023c600480360381019061023791906113d3565b610937565b60405161025098979695949392919061152e565b60405180910390f35b610273600480360381019061026e91906115b3565b610ab3565b005b34801561028157600080fd5b5061028a610b7b565b60405161029e989796959493929190611622565b60405180910390f35b3480156102b357600080fd5b506102bc610c63565b6040516102c99190611129565b60405180910390f35b3480156102de57600080fd5b506102e7610c69565b6040516102f49190611129565b60405180910390f35b34801561030957600080fd5b50610312610c6f565b60405161031f9190611129565b60405180910390f35b34801561033457600080fd5b5061033d610c75565b60405161034a9190611129565b60405180910390f35b34801561035f57600080fd5b50610368610c7f565b6040516103759190611129565b60405180910390f35b34801561038a57600080fd5b506103a560048036038101906103a091906116d3565b610c85565b6040516103b29190611129565b60405180910390f35b3480156103c757600080fd5b506103e260048036038101906103dd91906113d3565b610c9d565b005b3480156103f057600080fd5b506103f9610e91565b6040516104069190611129565b60405180910390f35b610417610e97565b005b60065481565b600160009054906101000a900473ffffffffffffffffffffffffffffffffffffffff1681565b600160009054906101000a900473ffffffffffffffffffffffffffffffffffffffff1673ffffffffffffffffffffffffffffffffffffffff163373ffffffffffffffffffffffffffffffffffffffff16146104d5576040517f08c379a00000000000000000000000000000000000000000000000000000000081526004016104cc90611772565b60405180910390fd5b6000600960006007548152602001908152602001600020905060076000815480929190610501906117c1565b91905055508381600001908051906020019061051e92919061106d565b50828160040160006101000a81548173ffffffffffffffffffffffffffffffffffffffff021916908373ffffffffffffffffffffffffffffffffffffffff16021790555081816001018190555060008160020160006101000a81548160ff0219169083151502179055506000816003018190555050505050565b60008060003373ffffffffffffffffffffffffffffffffffffffff1673ffffffffffffffffffffffffffffffffffffffff1681526020019081526020016000205411610619576040517f08c379a00000000000000000000000000000000000000000000000000000000081526004016106109061187c565b60405180910390fd5b60008060003373ffffffffffffffffffffffffffffffffffffffff1673ffffffffffffffffffffffffffffffffffffffff168152602001908152602001600020541161069a576040517f08c379a0000000000000000000000000000000000000000000000000000000008152600401610691906118e8565b60405180910390fd5b6000600960008381526020019081526020016000209050600015158160050160003373ffffffffffffffffffffffffffffffffffffffff1673ffffffffffffffffffffffffffffffffffffffff16815260200190815260200160002060009054906101000a900460ff16151514610746576040517f08c379a000000000000000000000000000000000000000000000000000000000815260040161073d90611954565b60405180910390fd5b60018160050160003373ffffffffffffffffffffffffffffffffffffffff1673ffffffffffffffffffffffffffffffffffffffff16815260200190815260200160002060006101000a81548160ff0219169083151502179055508060030160008154809291906107b5906117c1565b91905055505050565b600280546107cb906119a3565b80601f01602080910402602001604051908101604052809291908181526020018280546107f7906119a3565b80156108445780601f1061081957610100808354040283529160200191610844565b820191906000526020600020905b81548152906001019060200180831161082757829003601f168201915b505050505081565b600960205280600052604060002060009150905080600001805461086f906119a3565b80601f016020809104026020016040519081016040528092919081815260200182805461089b906119a3565b80156108e85780601f106108bd576101008083540402835291602001916108e8565b820191906000526020600020905b8154815290600101906020018083116108cb57829003601f168201915b5050505050908060010154908060020160009054906101000a900460ff16908060030154908060040160009054906101000a900473ffffffffffffffffffffffffffffffffffffffff16905085565b60008060008060006060600080600960008a815260200190815260200160002060020160009054906101000a900460ff16600960008b815260200190815260200160002060010154600960008c815260200190815260200160002060040160009054906101000a900473ffffffffffffffffffffffffffffffffffffffff16600960008d815260200190815260200160002060030154600654600960008f8152602001908152602001600020600001600160009054906101000a900473ffffffffffffffffffffffffffffffffffffffff16600754828054610a18906119a3565b80601f0160208091040260200160405190810160405280929190818152602001828054610a44906119a3565b8015610a915780601f10610a6657610100808354040283529160200191610a91565b820191906000526020600020905b815481529060010190602001808311610a7457829003601f168201915b5050505050925097509750975097509750975097509750919395975091939597565b600060085414610af8576040517f08c379a0000000000000000000000000000000000000000000000000000000008152600401610aef90611a21565b60405180910390fd5b82600481905550816003819055508060029080519060200190610b1c92919061106d565b5033600160006101000a81548173ffffffffffffffffffffffffffffffffffffffff021916908373ffffffffffffffffffffffffffffffffffffffff16021790555060086000815480929190610b71906117c1565b9190505550505050565b60008060606000806000806000600354600454600247600160009054906101000a900473ffffffffffffffffffffffffffffffffffffffff16600654600754600554858054610bc9906119a3565b80601f0160208091040260200160405190810160405280929190818152602001828054610bf5906119a3565b8015610c425780601f10610c1757610100808354040283529160200191610c42565b820191906000526020600020905b815481529060010190602001808311610c2557829003601f168201915b50505050509550975097509750975097509750975097509091929394959697565b60035481565b60075481565b60085481565b6000600754905090565b60055481565b60006020528060005260406000206000915090505481565b600160009054906101000a900473ffffffffffffffffffffffffffffffffffffffff1673ffffffffffffffffffffffffffffffffffffffff163373ffffffffffffffffffffffffffffffffffffffff1614610d2d576040517f08c379a0000000000000000000000000000000000000000000000000000000008152600401610d2490611772565b60405180910390fd5b6004546005541115610d3e57600080fd5b6000600960008381526020019081526020016000209050600015158160020160009054906101000a900460ff16151514610dad576040517f08c379a0000000000000000000000000000000000000000000000000000000008152600401610da490611a8d565b60405180910390fd5b6002600654610dbc9190611adc565b816003015411610e01576040517f08c379a0000000000000000000000000000000000000000000000000000000008152600401610df890611b59565b60405180910390fd5b8060040160009054906101000a900473ffffffffffffffffffffffffffffffffffffffff1673ffffffffffffffffffffffffffffffffffffffff166108fc82600101549081150290604051600060405180830381858888f19350505050158015610e6f573d6000803e3d6000fd5b5060018160020160006101000a81548160ff0219169083151502179055505050565b60045481565b600454341115610edc576040517f08c379a0000000000000000000000000000000000000000000000000000000008152600401610ed390611bc5565b60405180910390fd5b600060075414610f21576040517f08c379a0000000000000000000000000000000000000000000000000000000008152600401610f1890611c57565b60405180910390fd5b600354341015610f66576040517f08c379a0000000000000000000000000000000000000000000000000000000008152600401610f5d90611cc3565b60405180910390fd5b60008060003373ffffffffffffffffffffffffffffffffffffffff1673ffffffffffffffffffffffffffffffffffffffff168152602001908152602001600020541415610fc65760066000815480929190610fc0906117c1565b91905055505b6000803373ffffffffffffffffffffffffffffffffffffffff1673ffffffffffffffffffffffffffffffffffffffff16815260200190815260200160002054346110109190611ce3565b6000803373ffffffffffffffffffffffffffffffffffffffff1673ffffffffffffffffffffffffffffffffffffffff1681526020019081526020016000208190555034600560008282546110649190611ce3565b92505081905550565b828054611079906119a3565b90600052602060002090601f01602090048101928261109b57600085556110e2565b82601f106110b457805160ff19168380011785556110e2565b828001600101855582156110e2579182015b828111156110e15782518255916020019190600101906110c6565b5b5090506110ef91906110f3565b5090565b5b8082111561110c5760008160009055506001016110f4565b5090565b6000819050919050565b61112381611110565b82525050565b600060208201905061113e600083018461111a565b92915050565b600073ffffffffffffffffffffffffffffffffffffffff82169050919050565b600061116f82611144565b9050919050565b61117f81611164565b82525050565b600060208201905061119a6000830184611176565b92915050565b6000604051905090565b600080fd5b600080fd5b600080fd5b600080fd5b6000601f19601f8301169050919050565b7f4e487b7100000000000000000000000000000000000000000000000000000000600052604160045260246000fd5b611207826111be565b810181811067ffffffffffffffff82111715611226576112256111cf565b5b80604052505050565b60006112396111a0565b905061124582826111fe565b919050565b600067ffffffffffffffff821115611265576112646111cf565b5b61126e826111be565b9050602081019050919050565b82818337600083830152505050565b600061129d6112988461124a565b61122f565b9050828152602081018484840111156112b9576112b86111b9565b5b6112c484828561127b565b509392505050565b600082601f8301126112e1576112e06111b4565b5b81356112f184826020860161128a565b91505092915050565b600061130582611144565b9050919050565b611315816112fa565b811461132057600080fd5b50565b6000813590506113328161130c565b92915050565b61134181611110565b811461134c57600080fd5b50565b60008135905061135e81611338565b92915050565b60008060006060848603121561137d5761137c6111aa565b5b600084013567ffffffffffffffff81111561139b5761139a6111af565b5b6113a7868287016112cc565b93505060206113b886828701611323565b92505060406113c98682870161134f565b9150509250925092565b6000602082840312156113e9576113e86111aa565b5b60006113f78482850161134f565b91505092915050565b600081519050919050565b600082825260208201905092915050565b60005b8381101561143a57808201518184015260208101905061141f565b83811115611449576000848401525b50505050565b600061145a82611400565b611464818561140b565b935061147481856020860161141c565b61147d816111be565b840191505092915050565b600060208201905081810360008301526114a2818461144f565b905092915050565b60008115159050919050565b6114bf816114aa565b82525050565b6114ce816112fa565b82525050565b600060a08201905081810360008301526114ee818861144f565b90506114fd602083018761111a565b61150a60408301866114b6565b611517606083018561111a565b61152460808301846114c5565b9695505050505050565b600061010082019050611544600083018b6114b6565b611551602083018a61111a565b61155e6040830189611176565b61156b606083018861111a565b611578608083018761111a565b81810360a083015261158a818661144f565b905061159960c0830185611176565b6115a660e083018461111a565b9998505050505050505050565b6000806000606084860312156115cc576115cb6111aa565b5b60006115da8682870161134f565b93505060206115eb8682870161134f565b925050604084013567ffffffffffffffff81111561160c5761160b6111af565b5b611618868287016112cc565b9150509250925092565b600061010082019050611638600083018b61111a565b611645602083018a61111a565b8181036040830152611657818961144f565b9050611666606083018861111a565b6116736080830187611176565b61168060a083018661111a565b61168d60c083018561111a565b61169a60e083018461111a565b9998505050505050505050565b6116b081611164565b81146116bb57600080fd5b50565b6000813590506116cd816116a7565b92915050565b6000602082840312156116e9576116e86111aa565b5b60006116f7848285016116be565b91505092915050565b7f4f6e6c792062656e65666963696172792063616e2063616c6c6c20746869732060008201527f66756e6374696f6e000000000000000000000000000000000000000000000000602082015250565b600061175c60288361140b565b915061176782611700565b604082019050919050565b6000602082019050818103600083015261178b8161174f565b9050919050565b7f4e487b7100000000000000000000000000000000000000000000000000000000600052601160045260246000fd5b60006117cc82611110565b91507fffffffffffffffffffffffffffffffffffffffffffffffffffffffffffffffff8214156117ff576117fe611792565b5b600182019050919050565b7f4f6e6c7920646f6e6f72732063616e2063616c6c6c20746869732066756e637460008201527f696f6e0000000000000000000000000000000000000000000000000000000000602082015250565b600061186660238361140b565b91506118718261180a565b604082019050919050565b6000602082019050818103600083015261189581611859565b9050919050565b7f594f75206d75737420626520636f6e7472696275746f72000000000000000000600082015250565b60006118d260178361140b565b91506118dd8261189c565b602082019050919050565b60006020820190508181036000830152611901816118c5565b9050919050565b7f596f75206861766520616c726561647920766f74656400000000000000000000600082015250565b600061193e60168361140b565b915061194982611908565b602082019050919050565b6000602082019050818103600083015261196d81611931565b9050919050565b7f4e487b7100000000000000000000000000000000000000000000000000000000600052602260045260246000fd5b600060028204905060018216806119bb57607f821691505b602082108114156119cf576119ce611974565b5b50919050565b7f6f6e6c79206f6e652074656e6465720000000000000000000000000000000000600082015250565b6000611a0b600f8361140b565b9150611a16826119d5565b602082019050919050565b60006020820190508181036000830152611a3a816119fe565b9050919050565b7f546865207265717565737420686173206265656e20636f6d706c657465640000600082015250565b6000611a77601e8361140b565b9150611a8282611a41565b602082019050919050565b60006020820190508181036000830152611aa681611a6a565b9050919050565b7f4e487b7100000000000000000000000000000000000000000000000000000000600052601260045260246000fd5b6000611ae782611110565b9150611af283611110565b925082611b0257611b01611aad565b5b828204905092915050565b7f4d616a6f7269747920646f6573206e6f7420737570706f727400000000000000600082015250565b6000611b4360198361140b565b9150611b4e82611b0d565b602082019050919050565b60006020820190508181036000830152611b7281611b36565b9050919050565b7f616d6f756e742067726561746572207468616e20746172676574000000000000600082015250565b6000611baf601a8361140b565b9150611bba82611b79565b602082019050919050565b60006020820190508181036000830152611bde81611ba2565b9050919050565b7f72616973656420616d6f756e742068617320616c7265616479206d657920746160008201527f7267657400000000000000000000000000000000000000000000000000000000602082015250565b6000611c4160248361140b565b9150611c4c82611be5565b604082019050919050565b60006020820190508181036000830152611c7081611c34565b9050919050565b7f4d696e696d756d20646f6e6174696f6e206973206e6f74206d65740000000000600082015250565b6000611cad601b8361140b565b9150611cb882611c77565b602082019050919050565b60006020820190508181036000830152611cdc81611ca0565b9050919050565b6000611cee82611110565b9150611cf983611110565b9250827fffffffffffffffffffffffffffffffffffffffffffffffffffffffffffffffff03821115611d2e57611d2d611792565b5b82820190509291505056fea264697066735822122067c008ce475bf1329cf1a0f87d7f70330a153360c3136f78e41b7238628e487d64736f6c634300080b0033",
  "immutableReferences": {},
  "source": "// SPDX-License-Identifier: MIT\r\npragma solidity 0.8.11;\r\n\r\ncontract bcs {\r\n    //for transaction\r\n    mapping(address => uint256) public donors;\r\n    address public beneficiary;\r\n    string public url;\r\n    uint256 public minimumContribution;\r\n    uint256 public target;\r\n    uint256 public raisedAmount;\r\n    uint256 public noOfdonors;\r\n    uint256 public numRequests;\r\n    uint256 public numofregisteredTender;\r\n\r\n    struct Request {\r\n        string description;\r\n        uint256 value;\r\n        bool completed;\r\n        uint256 noOfVoters;\r\n        address payable recipient;\r\n        mapping(address => bool) voters;\r\n    }\r\n\r\n    mapping(uint256 => Request) public requests;\r\n\r\n    function registerTender(\r\n        uint256 _target,\r\n        uint256 _minimum,\r\n        string memory _url\r\n    ) external payable {\r\n        require(numofregisteredTender == 0, \"only one tender\");\r\n        target = _target;\r\n        minimumContribution = _minimum;\r\n        url = _url;\r\n        beneficiary = msg.sender;\r\n        numofregisteredTender++;\r\n    }\r\n\r\n    function getreqNo() public view returns (uint) {\r\n        return numRequests;\r\n    }\r\n    function donate() public payable {\r\n        require(msg.value <= target, \"amount greater than target\");\r\n        require(numRequests == 0, \"raised amount has already mey target\");\r\n\r\n        require(\r\n            msg.value >= minimumContribution,\r\n            \"Minimum donation is not met\"\r\n        );\r\n        if (donors[msg.sender] == 0) {\r\n            noOfdonors++;\r\n        }\r\n        donors[msg.sender] = msg.value + donors[msg.sender];\r\n        raisedAmount += msg.value;\r\n    }\r\n\r\n    modifier onlybeneficiary() {\r\n        require(\r\n            msg.sender == beneficiary,\r\n            \"Only beneficiary can calll this function\"\r\n        );\r\n        _;\r\n    }\r\n\r\n    modifier onlydonor() {\r\n        require(donors[msg.sender] > 0, \"Only donors can calll this function\");\r\n        _;\r\n    }\r\n\r\n    function createRequests(\r\n        string memory _description,\r\n        address payable _recipient,\r\n        uint256 _value\r\n    ) public payable onlybeneficiary {\r\n        Request storage newRequest = requests[numRequests];\r\n        numRequests++;\r\n        newRequest.description = _description;\r\n        newRequest.recipient = _recipient;\r\n        newRequest.value = _value;\r\n        newRequest.completed = false;\r\n        newRequest.noOfVoters = 0;\r\n    }\r\n\r\n    function voteRequest(uint256 _requestNo) public onlydonor {\r\n        require(donors[msg.sender] > 0, \"YOu must be contributor\");\r\n        Request storage thisRequest = requests[_requestNo];\r\n        require(\r\n            thisRequest.voters[msg.sender] == false,\r\n            \"You have already voted\"\r\n        );\r\n        thisRequest.voters[msg.sender] = true;\r\n        thisRequest.noOfVoters++;\r\n    }\r\n\r\n    function settleRequest(uint256 _requestNo) public onlybeneficiary {\r\n        require(raisedAmount <= target);\r\n        Request storage thisRequest = requests[_requestNo];\r\n        require(\r\n            thisRequest.completed == false,\r\n            \"The request has been completed\"\r\n        );\r\n        require(\r\n            thisRequest.noOfVoters > noOfdonors / 2,\r\n            \"Majority does not support\"\r\n        );\r\n        thisRequest.recipient.transfer(thisRequest.value);\r\n        thisRequest.completed = true;\r\n    }\r\n\r\n    function getTenderinfo()\r\n        public\r\n        view\r\n        returns (\r\n            uint256,\r\n            uint256,\r\n            string memory,\r\n            uint256,\r\n            address,\r\n            uint256,\r\n            uint256,\r\n            uint256\r\n        )\r\n    {\r\n        return (\r\n            minimumContribution,\r\n            target,\r\n            url,\r\n            address(this).balance,\r\n            beneficiary,\r\n            noOfdonors,\r\n            numRequests,\r\n            raisedAmount\r\n        );\r\n    }\r\n\r\n    function getRequeststatus(uint256 _i)\r\n        public\r\n        view\r\n        returns (\r\n            bool,\r\n            uint256,\r\n            address,\r\n            uint256,\r\n            uint256,\r\n            string memory,\r\n            address,\r\n            uint256\r\n        )\r\n    {\r\n        return (\r\n            requests[_i].completed,\r\n            requests[_i].value,\r\n            requests[_i].recipient,\r\n            requests[_i].noOfVoters,\r\n            noOfdonors,\r\n            requests[_i].description,\r\n            beneficiary,\r\n            numRequests\r\n        );\r\n    }\r\n}\r\n",
  "sourcePath": "C:\\Users\\DELL\\Desktop\\CS-dapp\\contracts\\bcs.sol",
  "compiler": {
    "name": "solc",
    "version": "0.8.11+commit.d7f03943.Emscripten.clang"
  },
  "schemaVersion": "3.4.5",
  "updatedAt": "2022-03-05T11:09:41.498Z",
  "networkType": "ethereum",
  "devdoc": {
    "kind": "dev",
    "methods": {},
    "version": 1
  },
  "userdoc": {
    "kind": "user",
    "methods": {},
    "version": 1
  }
}