{
  "contractName": "bcs",
  "abi": [
    {
      "inputs": [],
      "name": "beneficiary",
      "outputs": [
        {
          "internalType": "address",
          "name": "",
          "type": "address"
        }
      ],
      "stateMutability": "view",
      "type": "function",
      "constant": true
    },
    {
      "inputs": [
        {
          "internalType": "address",
          "name": "",
          "type": "address"
        }
      ],
      "name": "donors",
      "outputs": [
        {
          "internalType": "uint256",
          "name": "",
          "type": "uint256"
        }
      ],
      "stateMutability": "view",
      "type": "function",
      "constant": true
    },
    {
      "inputs": [],
      "name": "minimumContribution",
      "outputs": [
        {
          "internalType": "uint256",
          "name": "",
          "type": "uint256"
        }
      ],
      "stateMutability": "view",
      "type": "function",
      "constant": true
    },
    {
      "inputs": [],
      "name": "noOfdonors",
      "outputs": [
        {
          "internalType": "uint256",
          "name": "",
          "type": "uint256"
        }
      ],
      "stateMutability": "view",
      "type": "function",
      "constant": true
    },
    {
      "inputs": [],
      "name": "numRequests",
      "outputs": [
        {
          "internalType": "uint256",
          "name": "",
          "type": "uint256"
        }
      ],
      "stateMutability": "view",
      "type": "function",
      "constant": true
    },
    {
      "inputs": [],
      "name": "numofregisteredTender",
      "outputs": [
        {
          "internalType": "uint256",
          "name": "",
          "type": "uint256"
        }
      ],
      "stateMutability": "view",
      "type": "function",
      "constant": true
    },
    {
      "inputs": [],
      "name": "raisedAmount",
      "outputs": [
        {
          "internalType": "uint256",
          "name": "",
          "type": "uint256"
        }
      ],
      "stateMutability": "view",
      "type": "function",
      "constant": true
    },
    {
      "inputs": [
        {
          "internalType": "uint256",
          "name": "",
          "type": "uint256"
        }
      ],
      "name": "requests",
      "outputs": [
        {
          "internalType": "string",
          "name": "description",
          "type": "string"
        },
        {
          "internalType": "uint256",
          "name": "value",
          "type": "uint256"
        },
        {
          "internalType": "bool",
          "name": "completed",
          "type": "bool"
        },
        {
          "internalType": "uint256",
          "name": "noOfVoters",
          "type": "uint256"
        },
        {
          "internalType": "address payable",
          "name": "recipient",
          "type": "address"
        }
      ],
      "stateMutability": "view",
      "type": "function",
      "constant": true
    },
    {
      "inputs": [],
      "name": "target",
      "outputs": [
        {
          "internalType": "uint256",
          "name": "",
          "type": "uint256"
        }
      ],
      "stateMutability": "view",
      "type": "function",
      "constant": true
    },
    {
      "inputs": [],
      "name": "url",
      "outputs": [
        {
          "internalType": "string",
          "name": "",
          "type": "string"
        }
      ],
      "stateMutability": "view",
      "type": "function",
      "constant": true
    },
    {
      "inputs": [
        {
          "internalType": "uint256",
          "name": "_target",
          "type": "uint256"
        },
        {
          "internalType": "uint256",
          "name": "_minimum",
          "type": "uint256"
        },
        {
          "internalType": "string",
          "name": "_url",
          "type": "string"
        }
      ],
      "name": "registerTender",
      "outputs": [],
      "stateMutability": "payable",
      "type": "function",
      "payable": true
    },
    {
      "inputs": [],
      "name": "donate",
      "outputs": [],
      "stateMutability": "payable",
      "type": "function",
      "payable": true
    },
    {
      "inputs": [
        {
          "internalType": "string",
          "name": "_description",
          "type": "string"
        },
        {
          "internalType": "address payable",
          "name": "_recipient",
          "type": "address"
        },
        {
          "internalType": "uint256",
          "name": "_value",
          "type": "uint256"
        }
      ],
      "name": "createRequests",
      "outputs": [],
      "stateMutability": "nonpayable",
      "type": "function"
    },
    {
      "inputs": [
        {
          "internalType": "uint256",
          "name": "_requestNo",
          "type": "uint256"
        }
      ],
      "name": "voteRequest",
      "outputs": [],
      "stateMutability": "nonpayable",
      "type": "function"
    },
    {
      "inputs": [
        {
          "internalType": "uint256",
          "name": "_requestNo",
          "type": "uint256"
        }
      ],
      "name": "settleRequest",
      "outputs": [],
      "stateMutability": "nonpayable",
      "type": "function"
    },
    {
      "inputs": [],
      "name": "getTenderinfo",
      "outputs": [
        {
          "internalType": "uint256",
          "name": "",
          "type": "uint256"
        },
        {
          "internalType": "uint256",
          "name": "",
          "type": "uint256"
        },
        {
          "internalType": "string",
          "name": "",
          "type": "string"
        },
        {
          "internalType": "uint256",
          "name": "",
          "type": "uint256"
        },
        {
          "internalType": "address",
          "name": "",
          "type": "address"
        },
        {
          "internalType": "uint256",
          "name": "",
          "type": "uint256"
        },
        {
          "internalType": "uint256",
          "name": "",
          "type": "uint256"
        },
        {
          "internalType": "uint256",
          "name": "",
          "type": "uint256"
        }
      ],
      "stateMutability": "view",
      "type": "function",
      "constant": true
    },
    {
      "inputs": [],
      "name": "getRequeststatus",
      "outputs": [
        {
          "internalType": "uint256",
          "name": "",
          "type": "uint256"
        },
        {
          "internalType": "uint256",
          "name": "",
          "type": "uint256"
        },
        {
          "internalType": "string",
          "name": "",
          "type": "string"
        },
        {
          "internalType": "address",
          "name": "",
          "type": "address"
        },
        {
          "internalType": "address",
          "name": "",
          "type": "address"
        },
        {
          "internalType": "uint256",
          "name": "",
          "type": "uint256"
        }
      ],
      "stateMutability": "view",
      "type": "function",
      "constant": true
    }
  ],
  "bytecode": "0x608060405234801561001057600080fd5b50611ccc806100206000396000f3fe6080604052600436106100fe5760003560e01c8063928a139711610095578063c59ee1dc11610064578063c59ee1dc14610316578063ca0cdea814610341578063d247f92b1461037e578063d4b83992146103a7578063ed88c68e146103d2576100fe565b8063928a139714610263578063937e09b1146102955780639fb42b1f146102c0578063aaf09c4e146102eb576100fe565b80635600f04f116100d15780635600f04f146101ab5780637dd2dd77146101d657806381d12c58146102065780638faf755114610247576100fe565b806335b7f7831461010357806338af3eed1461012e5780633eb7647b146101595780634cb6f4a514610182575b600080fd5b34801561010f57600080fd5b506101186103dc565b60405161012591906110a3565b60405180910390f35b34801561013a57600080fd5b506101436103e2565b60405161015091906110ff565b60405180910390f35b34801561016557600080fd5b50610180600480360381019061017b91906112de565b610408565b005b34801561018e57600080fd5b506101a960048036038101906101a4919061134d565b61055b565b005b3480156101b757600080fd5b506101c0610781565b6040516101cd9190611402565b60405180910390f35b3480156101e257600080fd5b506101eb61080f565b6040516101fd96959493929190611424565b60405180910390f35b34801561021257600080fd5b5061022d6004803603810190610228919061134d565b61094c565b60405161023e9594939291906114b6565b60405180910390f35b610261600480360381019061025c9190611510565b610a37565b005b34801561026f57600080fd5b50610278610aff565b60405161028c98979695949392919061157f565b60405180910390f35b3480156102a157600080fd5b506102aa610be7565b6040516102b791906110a3565b60405180910390f35b3480156102cc57600080fd5b506102d5610bed565b6040516102e291906110a3565b60405180910390f35b3480156102f757600080fd5b50610300610bf3565b60405161030d91906110a3565b60405180910390f35b34801561032257600080fd5b5061032b610bf9565b60405161033891906110a3565b60405180910390f35b34801561034d57600080fd5b5061036860048036038101906103639190611630565b610bff565b60405161037591906110a3565b60405180910390f35b34801561038a57600080fd5b506103a560048036038101906103a0919061134d565b610c17565b005b3480156103b357600080fd5b506103bc610e0b565b6040516103c991906110a3565b60405180910390f35b6103da610e11565b005b60065481565b600160009054906101000a900473ffffffffffffffffffffffffffffffffffffffff1681565b600160009054906101000a900473ffffffffffffffffffffffffffffffffffffffff1673ffffffffffffffffffffffffffffffffffffffff163373ffffffffffffffffffffffffffffffffffffffff1614610498576040517f08c379a000000000000000000000000000000000000000000000000000000000815260040161048f906116cf565b60405180910390fd5b60006009600060075481526020019081526020016000209050600760008154809291906104c49061171e565b9190505550838160000190805190602001906104e1929190610fe7565b50828160040160006101000a81548173ffffffffffffffffffffffffffffffffffffffff021916908373ffffffffffffffffffffffffffffffffffffffff16021790555081816001018190555060008160020160006101000a81548160ff0219169083151502179055506000816003018190555050505050565b60008060003373ffffffffffffffffffffffffffffffffffffffff1673ffffffffffffffffffffffffffffffffffffffff16815260200190815260200160002054116105dc576040517f08c379a00000000000000000000000000000000000000000000000000000000081526004016105d3906117d9565b60405180910390fd5b60008060003373ffffffffffffffffffffffffffffffffffffffff1673ffffffffffffffffffffffffffffffffffffffff168152602001908152602001600020541161065d576040517f08c379a000000000000000000000000000000000000000000000000000000000815260040161065490611845565b60405180910390fd5b6000600960008381526020019081526020016000209050600015158160050160003373ffffffffffffffffffffffffffffffffffffffff1673ffffffffffffffffffffffffffffffffffffffff16815260200190815260200160002060009054906101000a900460ff16151514610709576040517f08c379a0000000000000000000000000000000000000000000000000000000008152600401610700906118b1565b60405180910390fd5b60018160050160003373ffffffffffffffffffffffffffffffffffffffff1673ffffffffffffffffffffffffffffffffffffffff16815260200190815260200160002060006101000a81548160ff0219169083151502179055508060030160008154809291906107789061171e565b91905055505050565b6002805461078e90611900565b80601f01602080910402602001604051908101604052809291908181526020018280546107ba90611900565b80156108075780601f106107dc57610100808354040283529160200191610807565b820191906000526020600020905b8154815290600101906020018083116107ea57829003601f168201915b505050505081565b6000806060600080600060096000600754815260200190815260200160002060030154600654600960006007548152602001908152602001600020600001600160009054906101000a900473ffffffffffffffffffffffffffffffffffffffff1660096000600754815260200190815260200160002060040160009054906101000a900473ffffffffffffffffffffffffffffffffffffffff166007548380546108b890611900565b80601f01602080910402602001604051908101604052809291908181526020018280546108e490611900565b80156109315780601f1061090657610100808354040283529160200191610931565b820191906000526020600020905b81548152906001019060200180831161091457829003601f168201915b50505050509350955095509550955095509550909192939495565b600960205280600052604060002060009150905080600001805461096f90611900565b80601f016020809104026020016040519081016040528092919081815260200182805461099b90611900565b80156109e85780601f106109bd576101008083540402835291602001916109e8565b820191906000526020600020905b8154815290600101906020018083116109cb57829003601f168201915b5050505050908060010154908060020160009054906101000a900460ff16908060030154908060040160009054906101000a900473ffffffffffffffffffffffffffffffffffffffff16905085565b600060085414610a7c576040517f08c379a0000000000000000000000000000000000000000000000000000000008152600401610a739061197e565b60405180910390fd5b82600481905550816003819055508060029080519060200190610aa0929190610fe7565b5033600160006101000a81548173ffffffffffffffffffffffffffffffffffffffff021916908373ffffffffffffffffffffffffffffffffffffffff16021790555060086000815480929190610af59061171e565b9190505550505050565b60008060606000806000806000600354600454600247600160009054906101000a900473ffffffffffffffffffffffffffffffffffffffff16600654600754600554858054610b4d90611900565b80601f0160208091040260200160405190810160405280929190818152602001828054610b7990611900565b8015610bc65780601f10610b9b57610100808354040283529160200191610bc6565b820191906000526020600020905b815481529060010190602001808311610ba957829003601f168201915b50505050509550975097509750975097509750975097509091929394959697565b60035481565b60075481565b60085481565b60055481565b60006020528060005260406000206000915090505481565b600160009054906101000a900473ffffffffffffffffffffffffffffffffffffffff1673ffffffffffffffffffffffffffffffffffffffff163373ffffffffffffffffffffffffffffffffffffffff1614610ca7576040517f08c379a0000000000000000000000000000000000000000000000000000000008152600401610c9e906116cf565b60405180910390fd5b6004546005541015610cb857600080fd5b6000600960008381526020019081526020016000209050600015158160020160009054906101000a900460ff16151514610d27576040517f08c379a0000000000000000000000000000000000000000000000000000000008152600401610d1e906119ea565b60405180910390fd5b6002600654610d369190611a39565b816003015411610d7b576040517f08c379a0000000000000000000000000000000000000000000000000000000008152600401610d7290611ab6565b60405180910390fd5b8060040160009054906101000a900473ffffffffffffffffffffffffffffffffffffffff1673ffffffffffffffffffffffffffffffffffffffff166108fc82600101549081150290604051600060405180830381858888f19350505050158015610de9573d6000803e3d6000fd5b5060018160020160006101000a81548160ff0219169083151502179055505050565b60045481565b600454341115610e56576040517f08c379a0000000000000000000000000000000000000000000000000000000008152600401610e4d90611b22565b60405180910390fd5b600060075414610e9b576040517f08c379a0000000000000000000000000000000000000000000000000000000008152600401610e9290611bb4565b60405180910390fd5b600354341015610ee0576040517f08c379a0000000000000000000000000000000000000000000000000000000008152600401610ed790611c20565b60405180910390fd5b60008060003373ffffffffffffffffffffffffffffffffffffffff1673ffffffffffffffffffffffffffffffffffffffff168152602001908152602001600020541415610f405760066000815480929190610f3a9061171e565b91905055505b6000803373ffffffffffffffffffffffffffffffffffffffff1673ffffffffffffffffffffffffffffffffffffffff1681526020019081526020016000205434610f8a9190611c40565b6000803373ffffffffffffffffffffffffffffffffffffffff1673ffffffffffffffffffffffffffffffffffffffff168152602001908152602001600020819055503460056000828254610fde9190611c40565b92505081905550565b828054610ff390611900565b90600052602060002090601f016020900481019282611015576000855561105c565b82601f1061102e57805160ff191683800117855561105c565b8280016001018555821561105c579182015b8281111561105b578251825591602001919060010190611040565b5b509050611069919061106d565b5090565b5b8082111561108657600081600090555060010161106e565b5090565b6000819050919050565b61109d8161108a565b82525050565b60006020820190506110b86000830184611094565b92915050565b600073ffffffffffffffffffffffffffffffffffffffff82169050919050565b60006110e9826110be565b9050919050565b6110f9816110de565b82525050565b600060208201905061111460008301846110f0565b92915050565b6000604051905090565b600080fd5b600080fd5b600080fd5b600080fd5b6000601f19601f8301169050919050565b7f4e487b7100000000000000000000000000000000000000000000000000000000600052604160045260246000fd5b61118182611138565b810181811067ffffffffffffffff821117156111a05761119f611149565b5b80604052505050565b60006111b361111a565b90506111bf8282611178565b919050565b600067ffffffffffffffff8211156111df576111de611149565b5b6111e882611138565b9050602081019050919050565b82818337600083830152505050565b6000611217611212846111c4565b6111a9565b90508281526020810184848401111561123357611232611133565b5b61123e8482856111f5565b509392505050565b600082601f83011261125b5761125a61112e565b5b813561126b848260208601611204565b91505092915050565b600061127f826110be565b9050919050565b61128f81611274565b811461129a57600080fd5b50565b6000813590506112ac81611286565b92915050565b6112bb8161108a565b81146112c657600080fd5b50565b6000813590506112d8816112b2565b92915050565b6000806000606084860312156112f7576112f6611124565b5b600084013567ffffffffffffffff81111561131557611314611129565b5b61132186828701611246565b93505060206113328682870161129d565b9250506040611343868287016112c9565b9150509250925092565b60006020828403121561136357611362611124565b5b6000611371848285016112c9565b91505092915050565b600081519050919050565b600082825260208201905092915050565b60005b838110156113b4578082015181840152602081019050611399565b838111156113c3576000848401525b50505050565b60006113d48261137a565b6113de8185611385565b93506113ee818560208601611396565b6113f781611138565b840191505092915050565b6000602082019050818103600083015261141c81846113c9565b905092915050565b600060c0820190506114396000830189611094565b6114466020830188611094565b818103604083015261145881876113c9565b905061146760608301866110f0565b61147460808301856110f0565b61148160a0830184611094565b979650505050505050565b60008115159050919050565b6114a18161148c565b82525050565b6114b081611274565b82525050565b600060a08201905081810360008301526114d081886113c9565b90506114df6020830187611094565b6114ec6040830186611498565b6114f96060830185611094565b61150660808301846114a7565b9695505050505050565b60008060006060848603121561152957611528611124565b5b6000611537868287016112c9565b9350506020611548868287016112c9565b925050604084013567ffffffffffffffff81111561156957611568611129565b5b61157586828701611246565b9150509250925092565b600061010082019050611595600083018b611094565b6115a2602083018a611094565b81810360408301526115b481896113c9565b90506115c36060830188611094565b6115d060808301876110f0565b6115dd60a0830186611094565b6115ea60c0830185611094565b6115f760e0830184611094565b9998505050505050505050565b61160d816110de565b811461161857600080fd5b50565b60008135905061162a81611604565b92915050565b60006020828403121561164657611645611124565b5b60006116548482850161161b565b91505092915050565b7f4f6e6c792062656e65666963696172792063616e2063616c6c6c20746869732060008201527f66756e6374696f6e000000000000000000000000000000000000000000000000602082015250565b60006116b9602883611385565b91506116c48261165d565b604082019050919050565b600060208201905081810360008301526116e8816116ac565b9050919050565b7f4e487b7100000000000000000000000000000000000000000000000000000000600052601160045260246000fd5b60006117298261108a565b91507fffffffffffffffffffffffffffffffffffffffffffffffffffffffffffffffff82141561175c5761175b6116ef565b5b600182019050919050565b7f4f6e6c7920646f6e6f72732063616e2063616c6c6c20746869732066756e637460008201527f696f6e0000000000000000000000000000000000000000000000000000000000602082015250565b60006117c3602383611385565b91506117ce82611767565b604082019050919050565b600060208201905081810360008301526117f2816117b6565b9050919050565b7f594f75206d75737420626520636f6e7472696275746f72000000000000000000600082015250565b600061182f601783611385565b915061183a826117f9565b602082019050919050565b6000602082019050818103600083015261185e81611822565b9050919050565b7f596f75206861766520616c726561647920766f74656400000000000000000000600082015250565b600061189b601683611385565b91506118a682611865565b602082019050919050565b600060208201905081810360008301526118ca8161188e565b9050919050565b7f4e487b7100000000000000000000000000000000000000000000000000000000600052602260045260246000fd5b6000600282049050600182168061191857607f821691505b6020821081141561192c5761192b6118d1565b5b50919050565b7f6f6e6c79206f6e652074656e6465720000000000000000000000000000000000600082015250565b6000611968600f83611385565b915061197382611932565b602082019050919050565b600060208201905081810360008301526119978161195b565b9050919050565b7f546865207265717565737420686173206265656e20636f6d706c657465640000600082015250565b60006119d4601e83611385565b91506119df8261199e565b602082019050919050565b60006020820190508181036000830152611a03816119c7565b9050919050565b7f4e487b7100000000000000000000000000000000000000000000000000000000600052601260045260246000fd5b6000611a448261108a565b9150611a4f8361108a565b925082611a5f57611a5e611a0a565b5b828204905092915050565b7f4d616a6f7269747920646f6573206e6f7420737570706f727400000000000000600082015250565b6000611aa0601983611385565b9150611aab82611a6a565b602082019050919050565b60006020820190508181036000830152611acf81611a93565b9050919050565b7f616d6f756e742067726561746572207468616e20746172676574000000000000600082015250565b6000611b0c601a83611385565b9150611b1782611ad6565b602082019050919050565b60006020820190508181036000830152611b3b81611aff565b9050919050565b7f72616973656420616d6f756e742068617320616c7265616479206d657920746160008201527f7267657400000000000000000000000000000000000000000000000000000000602082015250565b6000611b9e602483611385565b9150611ba982611b42565b604082019050919050565b60006020820190508181036000830152611bcd81611b91565b9050919050565b7f4d696e696d756d20646f6e6174696f6e206973206e6f74206d65740000000000600082015250565b6000611c0a601b83611385565b9150611c1582611bd4565b602082019050919050565b60006020820190508181036000830152611c3981611bfd565b9050919050565b6000611c4b8261108a565b9150611c568361108a565b9250827fffffffffffffffffffffffffffffffffffffffffffffffffffffffffffffffff03821115611c8b57611c8a6116ef565b5b82820190509291505056fea2646970667358221220114ced7b6888ad49e6846ee7757ade775aca0cdc0d8cb5f9c47d7818fdda5f4364736f6c634300080b0033",
  "immutableReferences": {},
  "source": "// SPDX-License-Identifier: MIT\r\npragma solidity 0.8.11;\r\n\r\ncontract bcs {\r\n\r\n  \r\n //for transaction\r\n    mapping(address=>uint) public donors; \r\n    address public beneficiary;\r\n    string public url;\r\n    uint public minimumContribution;\r\n    uint public target;\r\n    uint public raisedAmount;\r\n    uint public noOfdonors;\r\n    uint public numRequests;\r\n      uint public numofregisteredTender;\r\n    \r\n    struct Request{\r\n        string description;\r\n        uint value;\r\n        bool completed;\r\n        uint noOfVoters;\r\n        address payable recipient;\r\n        mapping(address=>bool) voters;\r\n    }\r\n    \r\n      mapping(uint=>Request) public requests;\r\n     \r\n\r\n    \r\n     function registerTender(uint _target,uint _minimum,string memory _url)  external payable  {\r\n          require(numofregisteredTender==0,\"only one tender\");\r\n        target=_target;\r\n        minimumContribution = _minimum;\r\n        url=_url;\r\n        beneficiary=msg.sender;\r\n        numofregisteredTender++;\r\n    }\r\n    \r\n\r\n\r\n\r\n    function donate() public payable{\r\n        \r\n         require(msg.value<=target,\"amount greater than target\");\r\n        require(numRequests==0,\"raised amount has already mey target\");\r\n        \r\n        require(msg.value >=minimumContribution,\"Minimum donation is not met\");\r\n         if(donors[msg.sender]==0){\r\n            noOfdonors++;\r\n        }\r\n        donors[msg.sender]=msg.value+donors[msg.sender];\r\n        raisedAmount+=msg.value;\r\n    }\r\n    \r\n\r\n    modifier onlybeneficiary(){\r\n        require(msg.sender==beneficiary,\"Only beneficiary can calll this function\");\r\n        _;\r\n    }\r\n\r\n    modifier onlydonor(){\r\n        require(donors[msg.sender]>0,\"Only donors can calll this function\");\r\n        _;\r\n    }\r\n\r\n\r\n function createRequests(string memory _description,address payable _recipient,uint _value) public onlybeneficiary{\r\n        Request storage newRequest = requests[numRequests];\r\n        numRequests++;\r\n        newRequest.description=_description;\r\n        newRequest.recipient=_recipient;\r\n        newRequest.value=_value;\r\n        newRequest.completed=false;\r\n        newRequest.noOfVoters=0;\r\n      }\r\n\r\n\r\n    function voteRequest(uint _requestNo) public onlydonor{\r\n        require(donors[msg.sender]>0,\"YOu must be contributor\");\r\n        Request storage thisRequest=requests[_requestNo];\r\n        require(thisRequest.voters[msg.sender]==false,\"You have already voted\");\r\n        thisRequest.voters[msg.sender]=true;\r\n        thisRequest.noOfVoters++;\r\n    }\r\n    function settleRequest(uint _requestNo) public onlybeneficiary{\r\n        require(raisedAmount>=target);\r\n        Request storage thisRequest=requests[_requestNo];\r\n        require(thisRequest.completed==false,\"The request has been completed\");\r\n        require(thisRequest.noOfVoters > noOfdonors/2,\"Majority does not support\");\r\n        thisRequest.recipient.transfer(thisRequest.value);\r\n        thisRequest.completed=true;\r\n\r\n    }\r\n\r\n     function getTenderinfo() public view returns ( uint, uint,string memory,uint,address,uint,uint,uint)\r\n     {\r\n        return (\r\n          minimumContribution,\r\n          target,\r\n          url,\r\n          address(this).balance,\r\n           beneficiary,\r\n           noOfdonors,\r\n           numRequests,\r\n           raisedAmount\r\n\r\n\r\n          \r\n        );\r\n    }\r\n\r\n    function getRequeststatus() public view returns ( uint, uint,string memory,address,address,uint)\r\n     {\r\n        return (\r\n\r\n          requests[numRequests].noOfVoters,\r\n           noOfdonors,\r\n           requests[numRequests].description,\r\n           beneficiary,\r\n           requests[numRequests].recipient,\r\n           numRequests\r\n          \r\n        );\r\n    }\r\n\r\n   \r\n\r\n}",
  "sourcePath": "D:\\test\\contracts\\bcs.sol",
  "compiler": {
    "name": "solc",
    "version": "0.8.11+commit.d7f03943.Emscripten.clang"
  },
  "schemaVersion": "3.4.4",
  "updatedAt": "2022-02-13T15:19:32.640Z",
  "networkType": "ethereum",
  "devdoc": {
    "kind": "dev",
    "methods": {},
    "version": 1
  },
  "userdoc": {
    "kind": "user",
    "methods": {},
    "version": 1
  }
}