{
  "contractName": "bcs",
  "abi": [
    {
      "inputs": [],
      "name": "beneficiary",
      "outputs": [
        {
          "internalType": "address",
          "name": "",
          "type": "address"
        }
      ],
      "stateMutability": "view",
      "type": "function",
      "constant": true
    },
    {
      "inputs": [
        {
          "internalType": "address",
          "name": "",
          "type": "address"
        }
      ],
      "name": "donors",
      "outputs": [
        {
          "internalType": "uint256",
          "name": "",
          "type": "uint256"
        }
      ],
      "stateMutability": "view",
      "type": "function",
      "constant": true
    },
    {
      "inputs": [],
      "name": "minimumContribution",
      "outputs": [
        {
          "internalType": "uint256",
          "name": "",
          "type": "uint256"
        }
      ],
      "stateMutability": "view",
      "type": "function",
      "constant": true
    },
    {
      "inputs": [],
      "name": "noOfdonors",
      "outputs": [
        {
          "internalType": "uint256",
          "name": "",
          "type": "uint256"
        }
      ],
      "stateMutability": "view",
      "type": "function",
      "constant": true
    },
    {
      "inputs": [],
      "name": "numRequests",
      "outputs": [
        {
          "internalType": "uint256",
          "name": "",
          "type": "uint256"
        }
      ],
      "stateMutability": "view",
      "type": "function",
      "constant": true
    },
    {
      "inputs": [],
      "name": "numofregisteredTender",
      "outputs": [
        {
          "internalType": "uint256",
          "name": "",
          "type": "uint256"
        }
      ],
      "stateMutability": "view",
      "type": "function",
      "constant": true
    },
    {
      "inputs": [],
      "name": "raisedAmount",
      "outputs": [
        {
          "internalType": "uint256",
          "name": "",
          "type": "uint256"
        }
      ],
      "stateMutability": "view",
      "type": "function",
      "constant": true
    },
    {
      "inputs": [
        {
          "internalType": "uint256",
          "name": "",
          "type": "uint256"
        }
      ],
      "name": "requests",
      "outputs": [
        {
          "internalType": "string",
          "name": "description",
          "type": "string"
        },
        {
          "internalType": "uint256",
          "name": "value",
          "type": "uint256"
        },
        {
          "internalType": "bool",
          "name": "completed",
          "type": "bool"
        },
        {
          "internalType": "uint256",
          "name": "noOfVoters",
          "type": "uint256"
        },
        {
          "internalType": "address payable",
          "name": "recipient",
          "type": "address"
        }
      ],
      "stateMutability": "view",
      "type": "function",
      "constant": true
    },
    {
      "inputs": [],
      "name": "target",
      "outputs": [
        {
          "internalType": "uint256",
          "name": "",
          "type": "uint256"
        }
      ],
      "stateMutability": "view",
      "type": "function",
      "constant": true
    },
    {
      "inputs": [],
      "name": "url",
      "outputs": [
        {
          "internalType": "string",
          "name": "",
          "type": "string"
        }
      ],
      "stateMutability": "view",
      "type": "function",
      "constant": true
    },
    {
      "inputs": [
        {
          "internalType": "uint256",
          "name": "_target",
          "type": "uint256"
        },
        {
          "internalType": "uint256",
          "name": "_minimum",
          "type": "uint256"
        },
        {
          "internalType": "string",
          "name": "_url",
          "type": "string"
        }
      ],
      "name": "registerTender",
      "outputs": [],
      "stateMutability": "payable",
      "type": "function",
      "payable": true
    },
    {
      "inputs": [],
      "name": "getreqNo",
      "outputs": [
        {
          "internalType": "uint256",
          "name": "",
          "type": "uint256"
        }
      ],
      "stateMutability": "view",
      "type": "function",
      "constant": true
    },
    {
      "inputs": [],
      "name": "donate",
      "outputs": [],
      "stateMutability": "payable",
      "type": "function",
      "payable": true
    },
    {
      "inputs": [
        {
          "internalType": "string",
          "name": "_description",
          "type": "string"
        },
        {
          "internalType": "address payable",
          "name": "_recipient",
          "type": "address"
        },
        {
          "internalType": "uint256",
          "name": "_value",
          "type": "uint256"
        }
      ],
      "name": "createRequests",
      "outputs": [],
      "stateMutability": "payable",
      "type": "function",
      "payable": true
    },
    {
      "inputs": [
        {
          "internalType": "uint256",
          "name": "_requestNo",
          "type": "uint256"
        }
      ],
      "name": "voteRequest",
      "outputs": [],
      "stateMutability": "nonpayable",
      "type": "function"
    },
    {
      "inputs": [
        {
          "internalType": "uint256",
          "name": "_requestNo",
          "type": "uint256"
        }
      ],
      "name": "settleRequest",
      "outputs": [],
      "stateMutability": "nonpayable",
      "type": "function"
    },
    {
      "inputs": [],
      "name": "getTenderinfo",
      "outputs": [
        {
          "internalType": "uint256",
          "name": "",
          "type": "uint256"
        },
        {
          "internalType": "uint256",
          "name": "",
          "type": "uint256"
        },
        {
          "internalType": "string",
          "name": "",
          "type": "string"
        },
        {
          "internalType": "uint256",
          "name": "",
          "type": "uint256"
        },
        {
          "internalType": "address",
          "name": "",
          "type": "address"
        },
        {
          "internalType": "uint256",
          "name": "",
          "type": "uint256"
        },
        {
          "internalType": "uint256",
          "name": "",
          "type": "uint256"
        },
        {
          "internalType": "uint256",
          "name": "",
          "type": "uint256"
        }
      ],
      "stateMutability": "view",
      "type": "function",
      "constant": true
    },
    {
      "inputs": [
        {
          "internalType": "uint256",
          "name": "_i",
          "type": "uint256"
        }
      ],
      "name": "getRequeststatus",
      "outputs": [
        {
          "internalType": "uint256",
          "name": "",
          "type": "uint256"
        },
        {
          "internalType": "bool",
          "name": "",
          "type": "bool"
        },
        {
          "internalType": "uint256",
          "name": "",
          "type": "uint256"
        },
        {
          "internalType": "address",
          "name": "",
          "type": "address"
        },
        {
          "internalType": "uint256",
          "name": "",
          "type": "uint256"
        },
        {
          "internalType": "string",
          "name": "",
          "type": "string"
        },
        {
          "internalType": "address",
          "name": "",
          "type": "address"
        },
        {
          "internalType": "uint256",
          "name": "",
          "type": "uint256"
        }
      ],
      "stateMutability": "view",
      "type": "function",
      "constant": true
    }
  ],
  "bytecode": "0x608060405234801561001057600080fd5b50611d7f806100206000396000f3fe6080604052600436106101095760003560e01c8063937e09b111610095578063c59ee1dc11610064578063c59ee1dc14610353578063ca0cdea81461037e578063d247f92b146103bb578063d4b83992146103e4578063ed88c68e1461040f57610109565b8063937e09b1146102a75780639fb42b1f146102d2578063aaf09c4e146102fd578063bc9191091461032857610109565b80635600f04f116100dc5780635600f04f146101a957806381d12c58146101d45780638b84590d146102155780638faf755114610259578063928a13971461027557610109565b806335b7f7831461010e57806338af3eed146101395780633eb7647b146101645780634cb6f4a514610180575b600080fd5b34801561011a57600080fd5b50610123610419565b6040516101309190611139565b60405180910390f35b34801561014557600080fd5b5061014e61041f565b60405161015b9190611195565b60405180910390f35b61017e60048036038101906101799190611374565b610445565b005b34801561018c57600080fd5b506101a760048036038101906101a291906113e3565b610598565b005b3480156101b557600080fd5b506101be6107be565b6040516101cb9190611498565b60405180910390f35b3480156101e057600080fd5b506101fb60048036038101906101f691906113e3565b61084c565b60405161020c9594939291906114e4565b60405180910390f35b34801561022157600080fd5b5061023c600480360381019061023791906113e3565b610937565b60405161025098979695949392919061153e565b60405180910390f35b610273600480360381019061026e91906115c3565b610ab3565b005b34801561028157600080fd5b5061028a610b7b565b60405161029e989796959493929190611632565b60405180910390f35b3480156102b357600080fd5b506102bc610c63565b6040516102c99190611139565b60405180910390f35b3480156102de57600080fd5b506102e7610c69565b6040516102f49190611139565b60405180910390f35b34801561030957600080fd5b50610312610c6f565b60405161031f9190611139565b60405180910390f35b34801561033457600080fd5b5061033d610c75565b60405161034a9190611139565b60405180910390f35b34801561035f57600080fd5b50610368610c7f565b6040516103759190611139565b60405180910390f35b34801561038a57600080fd5b506103a560048036038101906103a091906116e3565b610c85565b6040516103b29190611139565b60405180910390f35b3480156103c757600080fd5b506103e260048036038101906103dd91906113e3565b610c9d565b005b3480156103f057600080fd5b506103f9610e91565b6040516104069190611139565b60405180910390f35b610417610e97565b005b60065481565b600160009054906101000a900473ffffffffffffffffffffffffffffffffffffffff1681565b600160009054906101000a900473ffffffffffffffffffffffffffffffffffffffff1673ffffffffffffffffffffffffffffffffffffffff163373ffffffffffffffffffffffffffffffffffffffff16146104d5576040517f08c379a00000000000000000000000000000000000000000000000000000000081526004016104cc90611782565b60405180910390fd5b6000600960006007548152602001908152602001600020905060076000815480929190610501906117d1565b91905055508381600001908051906020019061051e92919061107d565b50828160040160006101000a81548173ffffffffffffffffffffffffffffffffffffffff021916908373ffffffffffffffffffffffffffffffffffffffff16021790555081816001018190555060008160020160006101000a81548160ff0219169083151502179055506000816003018190555050505050565b60008060003373ffffffffffffffffffffffffffffffffffffffff1673ffffffffffffffffffffffffffffffffffffffff1681526020019081526020016000205411610619576040517f08c379a00000000000000000000000000000000000000000000000000000000081526004016106109061188c565b60405180910390fd5b60008060003373ffffffffffffffffffffffffffffffffffffffff1673ffffffffffffffffffffffffffffffffffffffff168152602001908152602001600020541161069a576040517f08c379a0000000000000000000000000000000000000000000000000000000008152600401610691906118f8565b60405180910390fd5b6000600960008381526020019081526020016000209050600015158160050160003373ffffffffffffffffffffffffffffffffffffffff1673ffffffffffffffffffffffffffffffffffffffff16815260200190815260200160002060009054906101000a900460ff16151514610746576040517f08c379a000000000000000000000000000000000000000000000000000000000815260040161073d90611964565b60405180910390fd5b60018160050160003373ffffffffffffffffffffffffffffffffffffffff1673ffffffffffffffffffffffffffffffffffffffff16815260200190815260200160002060006101000a81548160ff0219169083151502179055508060030160008154809291906107b5906117d1565b91905055505050565b600280546107cb906119b3565b80601f01602080910402602001604051908101604052809291908181526020018280546107f7906119b3565b80156108445780601f1061081957610100808354040283529160200191610844565b820191906000526020600020905b81548152906001019060200180831161082757829003601f168201915b505050505081565b600960205280600052604060002060009150905080600001805461086f906119b3565b80601f016020809104026020016040519081016040528092919081815260200182805461089b906119b3565b80156108e85780601f106108bd576101008083540402835291602001916108e8565b820191906000526020600020905b8154815290600101906020018083116108cb57829003601f168201915b5050505050908060010154908060020160009054906101000a900460ff16908060030154908060040160009054906101000a900473ffffffffffffffffffffffffffffffffffffffff16905085565b60008060008060006060600080600854600960008b815260200190815260200160002060020160009054906101000a900460ff16600960008c815260200190815260200160002060010154600960008d815260200190815260200160002060040160009054906101000a900473ffffffffffffffffffffffffffffffffffffffff16600960008e815260200190815260200160002060030154600960008f8152602001908152602001600020600001600160009054906101000a900473ffffffffffffffffffffffffffffffffffffffff16600654828054610a18906119b3565b80601f0160208091040260200160405190810160405280929190818152602001828054610a44906119b3565b8015610a915780601f10610a6657610100808354040283529160200191610a91565b820191906000526020600020905b815481529060010190602001808311610a7457829003601f168201915b5050505050925097509750975097509750975097509750919395975091939597565b600060085414610af8576040517f08c379a0000000000000000000000000000000000000000000000000000000008152600401610aef90611a31565b60405180910390fd5b82600481905550816003819055508060029080519060200190610b1c92919061107d565b5033600160006101000a81548173ffffffffffffffffffffffffffffffffffffffff021916908373ffffffffffffffffffffffffffffffffffffffff16021790555060086000815480929190610b71906117d1565b9190505550505050565b60008060606000806000806000600354600454600247600160009054906101000a900473ffffffffffffffffffffffffffffffffffffffff16600654600754600554858054610bc9906119b3565b80601f0160208091040260200160405190810160405280929190818152602001828054610bf5906119b3565b8015610c425780601f10610c1757610100808354040283529160200191610c42565b820191906000526020600020905b815481529060010190602001808311610c2557829003601f168201915b50505050509550975097509750975097509750975097509091929394959697565b60035481565b60075481565b60085481565b6000600754905090565b60055481565b60006020528060005260406000206000915090505481565b600160009054906101000a900473ffffffffffffffffffffffffffffffffffffffff1673ffffffffffffffffffffffffffffffffffffffff163373ffffffffffffffffffffffffffffffffffffffff1614610d2d576040517f08c379a0000000000000000000000000000000000000000000000000000000008152600401610d2490611782565b60405180910390fd5b6004546005541115610d3e57600080fd5b6000600960008381526020019081526020016000209050600015158160020160009054906101000a900460ff16151514610dad576040517f08c379a0000000000000000000000000000000000000000000000000000000008152600401610da490611a9d565b60405180910390fd5b6002600654610dbc9190611aec565b816003015411610e01576040517f08c379a0000000000000000000000000000000000000000000000000000000008152600401610df890611b69565b60405180910390fd5b8060040160009054906101000a900473ffffffffffffffffffffffffffffffffffffffff1673ffffffffffffffffffffffffffffffffffffffff166108fc82600101549081150290604051600060405180830381858888f19350505050158015610e6f573d6000803e3d6000fd5b5060018160020160006101000a81548160ff0219169083151502179055505050565b60045481565b60045460055410610ea757600080fd5b600454341115610eec576040517f08c379a0000000000000000000000000000000000000000000000000000000008152600401610ee390611bd5565b60405180910390fd5b600060075414610f31576040517f08c379a0000000000000000000000000000000000000000000000000000000008152600401610f2890611c67565b60405180910390fd5b600354341015610f76576040517f08c379a0000000000000000000000000000000000000000000000000000000008152600401610f6d90611cd3565b60405180910390fd5b60008060003373ffffffffffffffffffffffffffffffffffffffff1673ffffffffffffffffffffffffffffffffffffffff168152602001908152602001600020541415610fd65760066000815480929190610fd0906117d1565b91905055505b6000803373ffffffffffffffffffffffffffffffffffffffff1673ffffffffffffffffffffffffffffffffffffffff16815260200190815260200160002054346110209190611cf3565b6000803373ffffffffffffffffffffffffffffffffffffffff1673ffffffffffffffffffffffffffffffffffffffff1681526020019081526020016000208190555034600560008282546110749190611cf3565b92505081905550565b828054611089906119b3565b90600052602060002090601f0160209004810192826110ab57600085556110f2565b82601f106110c457805160ff19168380011785556110f2565b828001600101855582156110f2579182015b828111156110f15782518255916020019190600101906110d6565b5b5090506110ff9190611103565b5090565b5b8082111561111c576000816000905550600101611104565b5090565b6000819050919050565b61113381611120565b82525050565b600060208201905061114e600083018461112a565b92915050565b600073ffffffffffffffffffffffffffffffffffffffff82169050919050565b600061117f82611154565b9050919050565b61118f81611174565b82525050565b60006020820190506111aa6000830184611186565b92915050565b6000604051905090565b600080fd5b600080fd5b600080fd5b600080fd5b6000601f19601f8301169050919050565b7f4e487b7100000000000000000000000000000000000000000000000000000000600052604160045260246000fd5b611217826111ce565b810181811067ffffffffffffffff82111715611236576112356111df565b5b80604052505050565b60006112496111b0565b9050611255828261120e565b919050565b600067ffffffffffffffff821115611275576112746111df565b5b61127e826111ce565b9050602081019050919050565b82818337600083830152505050565b60006112ad6112a88461125a565b61123f565b9050828152602081018484840111156112c9576112c86111c9565b5b6112d484828561128b565b509392505050565b600082601f8301126112f1576112f06111c4565b5b813561130184826020860161129a565b91505092915050565b600061131582611154565b9050919050565b6113258161130a565b811461133057600080fd5b50565b6000813590506113428161131c565b92915050565b61135181611120565b811461135c57600080fd5b50565b60008135905061136e81611348565b92915050565b60008060006060848603121561138d5761138c6111ba565b5b600084013567ffffffffffffffff8111156113ab576113aa6111bf565b5b6113b7868287016112dc565b93505060206113c886828701611333565b92505060406113d98682870161135f565b9150509250925092565b6000602082840312156113f9576113f86111ba565b5b60006114078482850161135f565b91505092915050565b600081519050919050565b600082825260208201905092915050565b60005b8381101561144a57808201518184015260208101905061142f565b83811115611459576000848401525b50505050565b600061146a82611410565b611474818561141b565b935061148481856020860161142c565b61148d816111ce565b840191505092915050565b600060208201905081810360008301526114b2818461145f565b905092915050565b60008115159050919050565b6114cf816114ba565b82525050565b6114de8161130a565b82525050565b600060a08201905081810360008301526114fe818861145f565b905061150d602083018761112a565b61151a60408301866114c6565b611527606083018561112a565b61153460808301846114d5565b9695505050505050565b600061010082019050611554600083018b61112a565b611561602083018a6114c6565b61156e604083018961112a565b61157b6060830188611186565b611588608083018761112a565b81810360a083015261159a818661145f565b90506115a960c0830185611186565b6115b660e083018461112a565b9998505050505050505050565b6000806000606084860312156115dc576115db6111ba565b5b60006115ea8682870161135f565b93505060206115fb8682870161135f565b925050604084013567ffffffffffffffff81111561161c5761161b6111bf565b5b611628868287016112dc565b9150509250925092565b600061010082019050611648600083018b61112a565b611655602083018a61112a565b8181036040830152611667818961145f565b9050611676606083018861112a565b6116836080830187611186565b61169060a083018661112a565b61169d60c083018561112a565b6116aa60e083018461112a565b9998505050505050505050565b6116c081611174565b81146116cb57600080fd5b50565b6000813590506116dd816116b7565b92915050565b6000602082840312156116f9576116f86111ba565b5b6000611707848285016116ce565b91505092915050565b7f4f6e6c792062656e65666963696172792063616e2063616c6c6c20746869732060008201527f66756e6374696f6e000000000000000000000000000000000000000000000000602082015250565b600061176c60288361141b565b915061177782611710565b604082019050919050565b6000602082019050818103600083015261179b8161175f565b9050919050565b7f4e487b7100000000000000000000000000000000000000000000000000000000600052601160045260246000fd5b60006117dc82611120565b91507fffffffffffffffffffffffffffffffffffffffffffffffffffffffffffffffff82141561180f5761180e6117a2565b5b600182019050919050565b7f4f6e6c7920646f6e6f72732063616e2063616c6c6c20746869732066756e637460008201527f696f6e0000000000000000000000000000000000000000000000000000000000602082015250565b600061187660238361141b565b91506118818261181a565b604082019050919050565b600060208201905081810360008301526118a581611869565b9050919050565b7f594f75206d75737420626520636f6e7472696275746f72000000000000000000600082015250565b60006118e260178361141b565b91506118ed826118ac565b602082019050919050565b60006020820190508181036000830152611911816118d5565b9050919050565b7f596f75206861766520616c726561647920766f74656400000000000000000000600082015250565b600061194e60168361141b565b915061195982611918565b602082019050919050565b6000602082019050818103600083015261197d81611941565b9050919050565b7f4e487b7100000000000000000000000000000000000000000000000000000000600052602260045260246000fd5b600060028204905060018216806119cb57607f821691505b602082108114156119df576119de611984565b5b50919050565b7f6f6e6c79206f6e652074656e6465720000000000000000000000000000000000600082015250565b6000611a1b600f8361141b565b9150611a26826119e5565b602082019050919050565b60006020820190508181036000830152611a4a81611a0e565b9050919050565b7f546865207265717565737420686173206265656e20636f6d706c657465640000600082015250565b6000611a87601e8361141b565b9150611a9282611a51565b602082019050919050565b60006020820190508181036000830152611ab681611a7a565b9050919050565b7f4e487b7100000000000000000000000000000000000000000000000000000000600052601260045260246000fd5b6000611af782611120565b9150611b0283611120565b925082611b1257611b11611abd565b5b828204905092915050565b7f4d616a6f7269747920646f6573206e6f7420737570706f727400000000000000600082015250565b6000611b5360198361141b565b9150611b5e82611b1d565b602082019050919050565b60006020820190508181036000830152611b8281611b46565b9050919050565b7f616d6f756e742067726561746572207468616e20746172676574000000000000600082015250565b6000611bbf601a8361141b565b9150611bca82611b89565b602082019050919050565b60006020820190508181036000830152611bee81611bb2565b9050919050565b7f72616973656420616d6f756e742068617320616c7265616479206d657920746160008201527f7267657400000000000000000000000000000000000000000000000000000000602082015250565b6000611c5160248361141b565b9150611c5c82611bf5565b604082019050919050565b60006020820190508181036000830152611c8081611c44565b9050919050565b7f4d696e696d756d20646f6e6174696f6e206973206e6f74206d65740000000000600082015250565b6000611cbd601b8361141b565b9150611cc882611c87565b602082019050919050565b60006020820190508181036000830152611cec81611cb0565b9050919050565b6000611cfe82611120565b9150611d0983611120565b9250827fffffffffffffffffffffffffffffffffffffffffffffffffffffffffffffffff03821115611d3e57611d3d6117a2565b5b82820190509291505056fea264697066735822122097d26b536315b86dde06ef8aacb822983d0a50dee6f5797f79fb71937c9f7e6864736f6c634300080b0033",
  "immutableReferences": {},
  "source": "// SPDX-License-Identifier: MIT\r\npragma solidity 0.8.11;\r\n\r\ncontract bcs {\r\n    //for transaction\r\n    mapping(address => uint256) public donors;\r\n    address public beneficiary;\r\n    string public url;\r\n    uint256 public minimumContribution;\r\n    uint256 public target;\r\n    uint256 public raisedAmount;\r\n    uint256 public noOfdonors;\r\n    uint256 public numRequests;\r\n    uint256 public numofregisteredTender;\r\n\r\n    struct Request {\r\n        string description;\r\n        uint256 value;\r\n        bool completed;\r\n        uint256 noOfVoters;\r\n        address payable recipient;\r\n        mapping(address => bool) voters;\r\n    }\r\n\r\n    mapping(uint256 => Request) public requests;\r\n\r\n    function registerTender(\r\n        uint256 _target,\r\n        uint256 _minimum,\r\n        string memory _url\r\n    ) external payable {\r\n        require(numofregisteredTender == 0, \"only one tender\");\r\n        target = _target;\r\n        minimumContribution = _minimum;\r\n        url = _url;\r\n        beneficiary = msg.sender;\r\n        numofregisteredTender++;\r\n    }\r\n\r\n    function getreqNo() public view returns (uint256) {\r\n        return numRequests;\r\n    }\r\n\r\n    function donate() public payable {\r\n          require(raisedAmount < target);\r\n        require(msg.value <= target, \"amount greater than target\");\r\n        require(numRequests == 0, \"raised amount has already mey target\");\r\n\r\n        require(\r\n            msg.value >= minimumContribution,\r\n            \"Minimum donation is not met\"\r\n        );\r\n        if (donors[msg.sender] == 0) {\r\n            noOfdonors++;\r\n        }\r\n        donors[msg.sender] = msg.value + donors[msg.sender];\r\n        raisedAmount += msg.value;\r\n    }\r\n\r\n    modifier onlybeneficiary() {\r\n        require(\r\n            msg.sender == beneficiary,\r\n            \"Only beneficiary can calll this function\"\r\n        );\r\n        _;\r\n    }\r\n\r\n    modifier onlydonor() {\r\n        require(donors[msg.sender] > 0, \"Only donors can calll this function\");\r\n        _;\r\n    }\r\n\r\n    function createRequests(\r\n        string memory _description,\r\n        address payable _recipient,\r\n        uint256 _value\r\n    ) public payable onlybeneficiary {\r\n        Request storage newRequest = requests[numRequests];\r\n        numRequests++;\r\n        newRequest.description = _description;\r\n        newRequest.recipient = _recipient;\r\n        newRequest.value = _value;\r\n        newRequest.completed = false;\r\n        newRequest.noOfVoters = 0;\r\n    }\r\n\r\n    function voteRequest(uint256 _requestNo) public onlydonor {\r\n        require(donors[msg.sender] > 0, \"YOu must be contributor\");\r\n        Request storage thisRequest = requests[_requestNo];\r\n        require(\r\n            thisRequest.voters[msg.sender] == false,\r\n            \"You have already voted\"\r\n        );\r\n        thisRequest.voters[msg.sender] = true;\r\n        thisRequest.noOfVoters++;\r\n    }\r\n\r\n    function settleRequest(uint256 _requestNo) public onlybeneficiary {\r\n        require(raisedAmount <= target);\r\n        Request storage thisRequest = requests[_requestNo];\r\n        require(\r\n            thisRequest.completed == false,\r\n            \"The request has been completed\"\r\n        );\r\n        require(\r\n            thisRequest.noOfVoters > noOfdonors / 2,\r\n            \"Majority does not support\"\r\n        );\r\n        thisRequest.recipient.transfer(thisRequest.value);\r\n        thisRequest.completed = true;\r\n    }\r\n\r\n    function getTenderinfo()\r\n        public\r\n        view\r\n        returns (\r\n            uint256,\r\n            uint256,\r\n            string memory,\r\n            uint256,\r\n            address,\r\n            uint256,\r\n            uint256,\r\n            uint256\r\n        )\r\n    {\r\n        return (\r\n            minimumContribution,\r\n            target,\r\n            url,\r\n            address(this).balance,\r\n            beneficiary,\r\n            noOfdonors,\r\n            numRequests,\r\n            raisedAmount\r\n        );\r\n    }\r\n\r\n    function getRequeststatus(uint256 _i)\r\n        public\r\n        view\r\n        returns (\r\n            uint256,\r\n            bool,\r\n            uint256,\r\n            address,\r\n            uint256,\r\n            string memory,\r\n            address,\r\n            uint256\r\n        )\r\n    {\r\n        return (\r\n            numofregisteredTender,\r\n            requests[_i].completed,\r\n            requests[_i].value,\r\n            requests[_i].recipient,\r\n            requests[_i].noOfVoters,\r\n            requests[_i].description,\r\n            beneficiary,\r\n            noOfdonors\r\n        );\r\n    }\r\n}\r\n",
  "sourcePath": "D:\\CS-dapp\\contracts\\bcs.sol",
  "compiler": {
    "name": "solc",
    "version": "0.8.11+commit.d7f03943.Emscripten.clang"
  },
  "schemaVersion": "3.4.7",
  "updatedAt": "2022-05-03T09:03:30.879Z",
  "networkType": "ethereum",
  "devdoc": {
    "kind": "dev",
    "methods": {},
    "version": 1
  },
  "userdoc": {
    "kind": "user",
    "methods": {},
    "version": 1
  }
}